:020000040800F2
:1000000000000220E501000829020008290200087A
:100010002902000829020008290200080000000047
:10002000000000000000000000000000290200089D
:10003000290200080000000029020008C10F000882
:1000400029020008290200082902000829020008E4
:1000500029020008290200082902000829020008D4
:1000600029020008290200082902000829020008C4
:1000700029020008290200082902000829020008B4
:1000800029020008290200082902000829020008A4
:100090002902000829020008290200082902000894
:1000A0002902000829020008290200082902000884
:1000B00029020008051A0008290200082902000880
:1000C0002902000829020008290200082902000864
:1000D000290200082902000829020008BD1D0008A5
:1000E0002902000829020008290200082902000844
:1000F0002902000829020008290200082902000834
:100100002902000829020008010C00082902000841
:100110002902000829020008290200082D0500080C
:100120002902000829020008290200082902000803
:1001300029020008290200082902000829020008F3
:1001400029020008290200082902000829020008E3
:1001500029020008290200082902000829020008D3
:1001600029020008290200082902000829020008C3
:1001700029020008290200082902000829020008B3
:08018000290200082902000811
:1001880010B5054C237833B9044B13B10448AFF3C9
:1001980000800123237010BD4805002000000000E6
:1001A80058360008084B10B51BB108480849AFF38A
:1001B80000800848036803B910BD074B002BFBD02B
:1001C800BDE81040184700BF00000000583600087E
:1001D8004C0500204805002000000000002103E035
:1001E8000A4B5B584350043109480A4B42189A425B
:1001F800F6D3094A02E0002342F8043B074B9A422F
:10020800F9D300F00FF800F0E9FE70477C360008DB
:10021800000000204805002048050020780600203E
:10022800FEE7000080B500AF154A154BD3F88830BB
:1002380043F47003C2F88830124A124B1B6843F02B
:10024800010313600F4B00229A600E4A0D4B1B6886
:1002580023F0847323F4803313600A4B0A4A5A60EC
:10026800084A084B1B6823F480231360054B0022BF
:10027800DA6000F00BF8024B4FF000629A6080BD24
:1002880000ED00E0003802401030002480B483B054
:1002980000AF00237B6000233B60354A344B1B686A
:1002A80043F480331360324B1B6803F400333B6024
:1002B8007B6801337B603B68002B03D17B68B3F517
:1002C800A06FF0D12A4B1B6803F40033002B02D037
:1002D80001233B6001E000233B603B68012B42D1D6
:1002E800234A234B1B6C43F080531364214A214B50
:1002F8001B6843F4804313601D4A1D4B9B68936041
:100308001B4A1B4B9B6843F400439360184A184BE5
:100318009B6843F4A0539360154B174A5A60144ADC
:10032800134B1B6843F08073136000BF104B1B68AE
:1003380003F00073002BF9D0104B40F205621A60ED
:100348000B4A0B4B9B6823F003039360084A084B46
:100358009B6843F00203936000BF054B9B6803F062
:100368000C03082BF9D10C37BD465DF8047B7047A8
:10037800003802400070004008544007003C02402A
:1003880080B584B000AF0023FB7332E0FA7B1E49CE
:1003980013469B0013449B000B4408335B681846C4
:1003A800012102F07DFB00233B72FA7B16491346BC
:1003B8009B0013449B000B4410331B78FB72FA7BA1
:1003C800114913469B0013449B000B4408331B88B8
:1003D8007B60FA7B0C4913469B0013449B000B443B
:1003E8005A683B1D1046194602F088F9FB7B013319
:1003F800FB73FB7B0C2BC9D900F056F800F078F89A
:100408001037BD4680BD00BF0400002080B485B011
:1004180000AF0346FB71FA790F4913469B0013445A
:100428009B000B4410335B78FB73FB790B4AD35C5E
:10043800BB73FB790949FA7BCA54FB7B002B04D1B7
:10044800BB7B002B01D0012300E0002318461437A2
:10045800BD465DF8047B7047040000206405002059
:1004680080B483B000AF0023FB800123FB800FE042
:10047800FA880C4913469B0013449B000B44103325
:100488005B78012B01D1002306E0FB880133FB8058
:10049800FB880C2BECD9012318460C37BD465DF8B8
:1004A800047B70470400002080B584B000AF202092
:1004B800012102F013FB41F28733BB6040F247335E
:1004C800BB800023BB810023FB803B1D07481946E6
:1004D80002F040FB0548012102F000FC034801211D
:1004E80002F01CFC1037BD4680BD00BF0014004060
:1004F80080B582B000AF0A480121012202F0F6FC63
:1005080037233B7100237B710023BB710123FB71EF
:100518003B1D184601F0FEFC0837BD4680BD00BFF4
:100528000014004080B582B000AF1848012102F0E5
:100538002DFD0023FB7122E0FA79154913469B0033
:1005480013449B000B445868FA79114913469B00E1
:1005580013449B000B4408331B88194602F05CF9CE
:100568000346BB71FA790A4913469B0013449B0062
:100578000B441033BA795A70FB790133FB71FB795C
:100588000C2BD9D90837BD4680BD00BF00140040E8
:100598000400002080B485B000AF0346FB7101233E
:1005A800BB810023FB7308E0BB891A469200134401
:1005B8005B00BB81FB7B0133FB73FA7BFB799A42BF
:1005C800F2D3BB8918461437BD465DF8047B7047E3
:1005D80080B582B000AF7860084611461A460346D7
:1005E800FB700B46BB7013467B70786800F066F9A9
:1005F800FB78092B00F2538101A252F823F000BFC7
:10060800690800083106000879060008C1060008D4
:10061800090700085107000885070008C3070008F4
:10062800E30700082B0800087B689B687A689289B2
:100638001A837B681B697A68928A1A837B681B68AD
:100648007A6892881A837B689B697A68928B5A8346
:100658007B681B6A7A68928C5A837B689B6A7A6883
:10066800928D5A837B681B6B7A68928E5A8316E147
:100678007B681B687A6892881A837B689B687A68AB
:1006880092891A837B681B697A68928A5A837B6885
:100698009B6A7A68928D5A837B681B6B7A68928E04
:1006A8001A837B681B6A7A68928C1A837B689B69B9
:1006B8007A68928B1A83F2E07B681B687A68928862
:1006C8001A837B689B687A6892891A837B681B699E
:1006D8007A68928A1A837B689B697A68928B1A83F4
:1006E8007B681B6A7A68928C5A837B689B6A7A68F3
:1006F800928D5A837B681B6B7A68928E1A83CEE040
:100708007B681B687A6892885A837B689B697A68D9
:10071800928B5A837B681B6A7A68928C5A837B68AF
:100728009B6A7A68928D1A837B681B6B7A68928EB3
:100738001A837B689B687A6892891A837B681B692D
:100748007A68928A1A83AAE07B681B687A6892881A
:100758001A837B689B6A7A68928D1A837B681B6B05
:100768007A68928E1A837B681B697A68928A1A83E0
:100778007B689B697A68928B1A8390E07B681B6818
:100788007A6892881A837B681B697A68928A1A83C6
:100798007B689B697A68928B1A837B681B6A7A6884
:1007A800928C1A837B689B6A7A68928D1A837B681D
:1007B8001B6B7A68928E1A8371E07B681B687A6873
:1007C80092881A837B689B687A6892891A837B6807
:1007D8001B697A68928A1A8361E07B681B687A6869
:1007E80092881A837B689B687A6892891A837B68E7
:1007F8001B697A68928A1A837B689B697A68928BEC
:100808001A837B681B6A7A68928C1A837B689B6A56
:100818007A68928D1A837B681B6B7A68928E1A832A
:100828003DE07B681B687A6892881A837B689B68BE
:100838007A6892891A837B681B697A68928A1A8314
:100848007B689B697A68928B1A837B689B6A7A6853
:10085800928D1A837B681B6B7A68928E1A831EE0CE
:100868007B681B687A6892881A837B689B687A68B9
:1008780092891A837B681B697A68928A1A837B68D3
:100888009B697A68928B1A837B681B6A7A68928C58
:100898001A837B689B6A7A68928D1A8300BFBA783C
:1008A8007B680B3253F83220BB7879680B33DB0056
:1008B8000B449B8853830837BD4680BD80B485B000
:1008C80000AF78607B681B687A6892885A837B6877
:1008D8009B687A6892895A837B681B697A68928ACE
:1008E8005A837B689B697A68928B5A837B681B6AF8
:1008F8007A68928C5A837B689B6A7A68928D5A834D
:100908007B681B6B7A68928E5A830023FB730EE018
:10091800FA7B7B680B3253F83220FB7B79680B3308
:10092800DB000B449B881383FB7B0133FB73FB7B4E
:10093800022BEDD91437BD465DF8047B704700BF24
:1009480090B583B000AF78607B6893F87530012B61
:100958002AD17B6893F874301A467B68134493F85D
:1009680070107B6893F874407B6893F873207B68F9
:1009780093F874309A420CBF01230023DBB27868E5
:100988002246FFF725FE7B6893F874300133DAB20C
:100998007B6883F874207B6893F87430032B03D149
:1009A8007B68002283F874200C37BD4690BD00BFD9
:1009B80080B584B000AF786001233B7302237B735A
:1009C8000023BB730023FB737B689B88BB607B6839
:1009D8001A6807F108031046194601F08FFE7B6874
:1009E8009B89BB607B689A6807F108031046194623
:1009F80001F084FE7B689B8ABB607B681A6907F1FB
:100A080008031046194601F079FE7B689B8BBB6092
:100A18007B689A6907F108031046194601F06EFED3
:100A28007B689B8CBB607B681A6A07F108031046D9
:100A3800194601F063FE7B689B8DBB607B689A6AF0
:100A480007F108031046194601F058FE7B689B8E93
:100A5800BB607B681A6B07F108031046194601F062
:100A68004DFE7B68B3F85C30BB607B689A6D07F11C
:100A780008031046194601F041FE7B68B3F864305C
:100A8800BB607B681A6E07F108031046194601F02F
:100A980035FE7B68B3F86C30BB607B689A6E07F1F3
:100AA80008031046194601F029FE1037BD4680BDDF
:100AB800B0B584B000AF78600B467B8013467B707E
:100AC8007B88FB730223BB731FE0BB7B0133DBB264
:100AD8001846FFF75FFD03461A46FB7B93FBF2F1CE
:100AE80002FB01F29B1AFB73BC7BFD7BBB7B1846A8
:100AF800FFF750FD034695FBF3F3DAB27B68234416
:100B080083F87020BB7B013BBB73BB7B002BDCD124
:100B1800FA7B0E4BA3FB0213D9080B469B000B4430
:100B28005B00D31ADAB27B6883F870207B687A7826
:100B380083F873207B68002283F874207B68012285
:100B480083F875201037BD46B0BD00BFCDCCCCCCE6
:100B580080B485B000AF78600B467B807B88FB73E0
:100B68007B68FA7B83F870207B68002283F8742006
:100B78007B68012283F875201437BD465DF8047B35
:100B8800704700BF80B584B000AF0820012101F094
:100B9800A5FF6423BB800023FB8040F25233BB6077
:100BA8000023BB810023BB733B1D1248194601F08B
:100BB800D1FF1048002102F071F80E48002102F020
:100BC8004DF80C480121012202F090F90948012151
:100BD80002F0A4F832233B7000237B700123BB7022
:100BE8000123FB703B46184601F094F91037BD46C7
:100BF80080BD00BF000C004080B500AF114B1B88C2
:100C080001339AB20F4B1A800F4B1B8801339AB2EB
:100C18000D4B1A800D4B1B8801339AB20B4B1A806F
:100C28000B4B1B8801339AB2094B1A80094B1B885E
:100C380001339AB2074B1A800748012102F0A6F93E
:100C480080BD00BFBE050020AA050020A005002029
:100C5800AE050020A8050020000C004080B588B033
:100C680000AF786007F10C03184601F06FFE3B698E
:100C7800084AA2FB03231B0A7A6802FB03F3FB6101
:100C880002E0FB69013BFB61FB69002BF9D12037CE
:100C9800BD4680BDF119760580B59CB000AF042033
:100CA800012101F0FDFE4FF48000012101F0F8FE62
:100CB8004FF48070012101F02FFF434801F0A0FBA1
:100CC8000023FB62414B3B63414B7B630023BB63C7
:100CD8000123FB6300233B644FF480637B644FF480
:100CE8000063BB644FF40053FB644FF480733B65AF
:100CF8004FF400337B650423BB650323FB650023A6
:100D08003B6600237B6607F12C032F48194601F048
:100D180049FC2D481821012201F0B6FC2A4801217E
:100D280001F096FC2B4A07F1680392E8030083E878
:100D3800030007F168032848194601F0DFFC002387
:100D48007B600023BB600023FB6000233B613B1DED
:100D5800184601F093F94FF000737B6101233B764D
:100D680001237B7600233B6200237B62012387F803
:100D7800283007F114031948194601F02BF91748D0
:100D8800012101F099FA10481021012201F07CFCA0
:100D98001248012101F0BAFA10480F210122032359
:100DA80001F0B0F90D48012101F0CCFA0B4840F2EE
:100DB8000521012201F0E2FA0848012101F086F933
:100DC8007037BD4680BD00BF106402404C20014012
:100DD800A405002048360008000802400020014011
:100DE80080B500AF0B480F210122002301F08AF9DA
:100DF800084801F051FA00BF0648022101F0E6FA5E
:100E08000346002BF8D0034801F072FA034618464F
:100E180080BD00BF0020014080B483B000AF03460E
:100E28003960FB7197F90730002B0BDA0D49FB7914
:100E380003F00F03043B3A68D2B21201D2B20B445A
:100E48001A7609E0084997F907303A68D2B21201D0
:100E5800D2B20B4483F800230C37BD465DF8047BFF
:100E6800704700BF00ED00E000E100E080B582B00F
:100E780000AF78607B68B3F1807F01D3012311E074
:100E88000A4A7B6823F07F43013B53604FF0FF30F1
:100E98000F21FFF7C1FF054B00229A60034B072281
:100EA8001A60002318460837BD4680BD10E000E0F0
:100EB80080B582B000AF00F025FEFFF7EDFEFFF72A
:100EC80061FEFFF75DFA00F019FD00F045FD00F046
:100ED8001FFF27233B710123BB7101237B71012372
:100EE800FB713B1D184601F015F82D4840F22551BD
:100EF800012202F06DFA2A4840F22661002202F02F
:100F080067FA284B284A1A60264B284A9A60254BCC
:100F1800274A1A61234B264A9A61224B244A1A62AD
:100F2800204B234A9A621F4B224A1A631D4B1F4AC1
:100F38009A651C4B1D4A1A661A4B1B4A9A66194B2E
:100F48001C4A9A63174B01229A80164B4FF4804231
:100F58009A81144B40229A82124B10229A83114B89
:100F680004229A840F4B01229A850E4B4FF480720B
:100F78009A860C4B4FF40052A3F85C20094B4FF4AF
:100F88000042A3F86420074B0222A3F86C20054B0B
:100F980040229A870348FFF70BFD0837BD4680BDFE
:100FA80000480040C8050020001C0240000802401C
:100FB800001002400004024080B500AF0548FFF76A
:100FC800BFFC054B1B889BB201339AB2024B1A80B7
:100FD80080BD00BFC80500205806002090B583B02A
:100FE80000AFFFF765FF00237B71994B1B68994A97
:100FF800A2FB03239B091846FFF738FFFFF730FAD7
:10100800034683F00103DBB2002B02D0924B04228B
:101018001A719248012101F0FFFB0346002B02D10F
:101028008D4B06229A718D48022101F0F5FB03468B
:10103800002B02D1884B08221A728848012100F03F
:10104800C5FC0346002B02D0834B0722DA71834884
:10105800022100F0BBFC0346002B0AD07E4B09227C
:101068005A727F48802101F0FFFB7D48402101F042
:10107800FBFB7C4B1B799AB27A4BDB789BB212FB59
:1010880003F39BB21A46920013449B009BB2764826
:101098001946FFF75DFD00F087FB0120FFF7B6F961
:1010A8000346002B02D0FB790133FB71FB79032B3C
:1010B80001D90123FB71FB79022B18D0032B2BD00C
:1010C800012B3FD16548082101F0CEFB674840213C
:1010D80001F0D8FB6548102101F0D4FB62480321D8
:1010E8000022FFF7E5FC5F4B01221A7037E05B48EE
:1010F800082101F0C7FB5D48402101F0B5FB5B48C2
:10110800102101F0BFFB584821210022FFF7D0FC35
:10111800544B02221A7022E05048082101F0B2FB19
:101128005248402101F0AEFB5048102101F09CFBD1
:101138004D484FF45E710022FFF7BAFC494B032279
:101148001A700CE04548082101F09CFB47484021F3
:1011580001F098FB4548102101F094FB00BF0B20DB
:10116800FFF754F90346002B05D0414B1B78013398
:10117800DAB23F4B1A703E4B1B78032B02D93C4B1B
:1011880001221A70FB79022B16D0032B27D0012BD2
:1011980038D138484FF4004101F066FB35484FF428
:1011A800005101F06FFB33484FF4007101F06AFB06
:1011B8002C4B0A229A7035E02E484FF4004101F07A
:1011C80061FB2C484FF4005101F04EFB29484FF4C5
:1011D800007101F057FB234B07229A7022E0254843
:1011E8004FF4004101F04EFB22484FF4005101F04A
:1011F80049FB20484FF4007101F036FB194B0222DD
:101208009A700FE01B484FF4004101F03BFB19486E
:101218004FF4005101F036FB16484FF4007101F00D
:1012280031FB00BF0220FFF7F1F80346002B31D055
:10123800114B1B7883F00103DBB2002B1ED008484A
:101248004FF4007101F010FB0B4B01221A7021E0E2
:1012580000000020D34D6210B405002000040240B5
:101268000008024050060020C8050020000C02407B
:1012780078050020000002407E050020C34B1B7843
:10128800002B07D0C2484FF4007101F0FBFABF4BA6
:1012980000221A700C20FFF7B9F80346002B02D081
:1012A800BC4B01221A700320FFF7B0F80346002B4D
:1012B80002D0B94B01221A700420FFF7A7F80346A1
:1012C800002B02D0B54B01221A700B20FFF79EF8B5
:1012D8000346002B02D0B24B01221A700520FFF7FB
:1012E80095F80346002B02D0AE4B01221A70062057
:1012F800FFF78CF80346002B27D0AB48082101F0F4
:10130800C1FAA948022101F0BDFAA8484FF40071BA
:1013180001F0B8FAA648042101F0B4FAA448012162
:1013280001F0B0FA9A484FF4006101F0ABFAA04816
:10133800012101F099FA9F4B01221A709E4B6D22F0
:101348001A7000BF9D4B02225A700720FFF75EF803
:101358000346002B28D09448082101F093FA9248BC
:10136800022101F08FFA91484FF4007101F08AFAD6
:101378008F48042101F086FA8D48012101F082FA94
:1013880083484FF4006101F07DFA81484FF4006111
:1013980001F06AFA8A4B01221A70874B6F221A7081
:1013A80000BF864B04225A700820FFF72FF8034627
:1013B800002B27D07C48082101F064FA7A480221E2
:1013C80001F060FA79484FF4007101F05BFA78484F
:1013D800042101F057FA7648012101F053FA6C48CC
:1013E8004FF4006101F04EFA6F48082101F03CFA11
:1013F800744B01221A70704B6E221A7000BF6F4B2B
:1014080001225A700920FFF701F80346002B27D064
:101418006548082101F036FA6348022101F032FAE2
:1014280062484FF4007101F02DFA6148042101F07F
:1014380029FA5F48012101F025FA55484FF4006167
:1014480001F020FA5848022101F00EFA5E4B012201
:101458001A70594B6D221A7000BF584B03225A70EC
:101468000520FEF7D3FF0346002B27D04E4808215E
:1014780001F008FA4C48022101F004FA4B484FF4F5
:10148800007101F0FFF94A48042101F0FBF94848CE
:10149800012101F0F7F93E484FF4006101F0F2F93B
:1014A8004348042101F0E0F93E4B01221A70424BF7
:1014B8006E221A7000BF414B00225A700A20FEF7B4
:1014C800A5FF0346002B28D03748082101F0DAF998
:1014D8003548022101F0D6F934484FF4007101F083
:1014E800D1F93348042101F0CDF93148012101F047
:1014F800C9F927484FF4006101F0C4F92B484FF4AB
:10150800007101F0B1F9314B01221A702A4B6F2298
:101518001A7000BF294B05225A702D4B1B78022BDD
:1015280040F0BD800C20FEF771FF0346002B00F051
:10153800B6800023BB710023BB710FE0FFF750FC9E
:1015480003461A46234B1B8813449AB2214B1A8030
:101558001420FFF783FBBB790133BB71BB79052BE3
:10156800ECD91C4B1B881A46BB7992FBF3F39AB251
:10157800184B1A80174B1B88012B2FD8164B0122AA
:101588005A70134B01221A7085E500BF7E050020B2
:10159800000802407A0500207B0500207C05002019
:1015A8007D0500207F050020001002400004024055
:1015B800000C02408005002079050020500600201C
:1015C8008105002082050020830500208405002075
:1015D8007405002076050020B40500203B4B1B88CD
:1015E8001A46BB7992FBF3F39AB2384B1A80374B01
:1015F8001B88032B06D9364B02229A70354B0122E1
:101608001A7048E56420FFF729FB3348012100F0F0
:10161800DDF9034683F00103DBB2002B06D02C4B27
:1016280001225A702B4B01221A7034E52A480221F4
:1016380001F0F2F80346002B06D1254B06229A71D9
:10164800244B01221A7026E52348022100F0BEF936
:101658000346002B0DD01E4B09225A721D4B012246
:101668001A701E48802101F0FFF81C48402101F043
:10167800FBF81948022101F0CFF80346012B0CBFF3
:1016880001230023DBB21C461348012100F09EF918
:1016980003462340002B02D00E4B03221A700D4B39
:1016A8001B78032B11D10E4B1B799BB20D481946A1
:1016B800FFF74EFA0C4B1B789AB20C4B1B889A42D8
:1016C80003D8044B01221A70E5E4E4E4760500200F
:1016D800B405002074050020000402400008024000
:1016E80050060020C805002008010020A0050020A1
:1016F80080B483B000AF0346FB71084997F90730FF
:101708005B09FA7902F01F02012000FA02F241F89F
:1017180023200C37BD465DF8047B704700E100E0EC
:1017280080B483B000AF0346FB71094997F90730CD
:101738005B09FA7902F01F02012000FA02F2203355
:1017480041F823200C37BD465DF8047B704700BF85
:1017580000E100E080B483B000AF03463960FB715C
:1017680097F90730002B0BDA0D49FB7903F00F03CB
:10177800043B3A68D2B21201D2B20B441A7609E09D
:10178800084997F907303A68D2B21201D2B20B442D
:1017980083F800230C37BD465DF8047B704700BF13
:1017A80000ED00E000E100E080B500AF0F4B1B88C2
:1017B8009AB20F4B1B689BB21046194600F050F9BD
:1017C8000346092B10D9094B1B889BB21A46084BB4
:1017D8001A60084801F03AF8034683F080039BB288
:1017E8000448194601F05CF880BD00BF5806002087
:1017F8008C0500200004024080B500AF0E4B1B880A
:101808009BB2002B14D01D20FFF78AFF0A4B002241
:101818001A800A4B1A880A4B1B881046194600F092
:101828001FF903461A46074B1A801D20FFF760FF71
:10183800044B1B88184680BD880500205E060020E2
:101848005A0600209005002080B582B000AF104BEA
:101858001B889BB2002B15D01D20FFF761FF0C4B96
:1018680000221A800B4B1A880B4B1B88104619460E
:1018780000F0F6F80346FB80084AFB8813801D2019
:10188800FFF736FF054B1B8818460837BD4680BD55
:101898008A0500205E0600205A06002092050020D6
:1018A80080B582B000AF0023FB80104B1B889BB231
:1018B800002B15D01D20FFF733FF0C4B00221A8098
:1018C8000B4B1A880B4B1B881046194600F0C8F8BA
:1018D8000346FB80084AFB8813801D20FFF708FF9A
:1018E800FB8818460837BD4680BD00BF8605002026
:1018F8005A0600205E0600206006002080B582B0EF
:1019080000AF0220012101F0CBF880233B600123C6
:101918003B710023BB710223FB7102237B713B46A1
:101928000C48194600F0EAFE0220012101F0B8F83F
:1019380003233B6000233B710023BB710023FB7131
:1019480002237B713B460348194600F0D7FE08374F
:10195800BD4680BD0004024080B586B000AF0220BD
:10196800012101F09DF807F10C03184601F05CF91C
:1019780045F6BF53BB8107F10C031348194601F024
:10198800E9F808233B8002237B800123BB800023E6
:10199800FB8000233B813B460B48194601F0DEF9EA
:1019A80009480821012201F0A1FA1D200121FFF7B1
:1019B800D1FE0548012101F0B1F91D20FFF798FE7D
:1019C8001837BD4680BD00BF0004004080B582B016
:1019D80000AF78600B467B807B880748194600F08B
:1019E8005DF80346142B01D1012300E000231846BB
:1019F8000837BD4680BD00BF0004024080B500AF77
:101A08001248082101F0C2FA114B1A88114B1A80AA
:101A18000F4B4FF47A721A800F4B1B889BB2002B26
:101A280002D10E4B01221A800B4B00221A80074864
:101A38004FF4006101F07EFA0346002B04D00348FE
:101A48004FF4006101F092FA80BD00BF000400402D
:101A58005E0600205A0600200A01002086050020A4
:101A680080B483B000AF03460A46FB801346BB80B0
:101A7800FA88BB889A4204D3FA88BB88D31A9BB2E7
:101A880005E0FA88BB88D31A9BB2013B9BB2184683
:101A98000C37BD465DF8047B704700BF80B584B045
:101AA80000AF78600B467B800023FB8105237B73A6
:101AB80013E07B88012B06D1FFF79EFE03461A46EA
:101AC800FB891344FB817B88022B06D1FFF7BCFE00
:101AD80003461A46FB891344FB817B7B013BDBB23F
:101AE8007B7397F90D30002BE3DCFB89044AA2FBDA
:101AF80003239B089BB218461037BD4680BD00BF24
:101B0800CDCCCCCC80B500AF0120012100F0C8FFBE
:101B18006C4B44F209521A606A4B00221A71694BE5
:101B280000229A71674B0122DA71664B02225A71C0
:101B38006548644900F0E2FD0220012100F0B0FF91
:101B4800604B4FF4A4721A605E4B01221A715D4B10
:101B580000229A715B4B0222DA715A4B02225A71A7
:101B68005A48584900F0CAFD564B12221A60554B84
:101B780000221A71534B00229A71524B0122DA71DA
:101B8800504B02225A7151484E4900F0B7FD0420CB
:101B9800012100F085FF4B4B4EF6C0221A60494BDD
:101BA80001221A71474B00229A71464B0222DA71C0
:101BB800444B02225A714648424900F09FFD414B6E
:101BC8004FF4A8521A603F4B00221A713D4B002275
:101BD8009A713C4B0122DA713A4B02225A713C4805
:101BE800384900F08BFD0820012100F059FF354BE2
:101BF8004FF255021A60334B01221A71314B002201
:101C08009A71304B0222DA712E4B02225A713148F6
:101C18002C4900F073FD2B4BAA221A60294B002295
:101C28001A71284B00229A71264B0122DA71254B32
:101C380002225A712748234900F060FD1020012133
:101C480000F02EFF1F4B40F67F221A601D4B012229
:101C58001A711C4B00229A711A4B0222DA71194B25
:101C680002225A711C48174900F048FD154B802282
:101C78001A60144B00221A71124B00229A71114BF0
:101C88000122DA710F4B02225A7113480D4900F0F4
:101C980035FD8020012100F003FF0A4B03221A6062
:101CA800084B01221A71074B00229A71054B022238
:101CB800DA71044B02225A710848024900F01EFDED
:101CC80080BD00BF640600200000024000040240FE
:101CD80000080240000C024000100240001C0240B4
:101CE80080B483B000AF0346FB71084997F9073009
:101CF8005B09FA7902F01F02012000FA02F241F8AA
:101D080023200C37BD465DF8047B704700E100E0F6
:101D180080B586B000AF4FF416533B600023BB80FC
:101D28000023FB8000233B810023BB810C237B81A4
:101D38004FF48020012100F0D1FE0820012100F09D
:101D4800AFFE1A480821072200F0B8FD17480921FC
:101D5800072200F0B3FD0023BB750123FB750223A6
:101D68003B754FF480733B6102237B7507F11003C9
:101D78000E48194600F0C2FC02233B754FF400736D
:101D88003B6107F110030948194600F0B7FC3B46D0
:101D98000748194601F02EFA2720FFF7A1FF04484B
:101DA800012101F0E3FA1837BD4680BD000C02405E
:101DB8000048004080B500AF284840F2277101F084
:101DC8006BFB0346002B13D0254B1B685A1C244978
:101DD8000A60244AD35C5BB29BB22048194601F0E2
:101DE800E5FA1F4B1B68012B02D91D4B00221A6014
:101DF8001A4B1B889BB203F02003002B16D0174BFD
:101E08009B889BB2DAB2184B1A70174B1B785BB2DF
:101E1800562B07D1FFF744FD03460233184600F05E
:101E280041F803E0612000F03DF800BF0B4840F2A4
:101E3800266101F031FB0346002B0ED00B4B1B78BB
:101E48000133DAB2094B1A70084B1A78084B1B7821
:101E58009A4202D1054B00221A7080BD004800400A
:101E6800980500206C0600207406002094050020C8
:101E78000C01002080B582B000AF78600B46FB7083
:101E880000BF7868802101F0EBFA0346002BF8D0F8
:101E9800FB789BB27868194601F088FA0837BD4686
:101EA80080BD00BF80B584B000AF786042F2107387
:101EB800FB600023FB727B68FA68B3FBF2F2F968F7
:101EC80001FB02F29B1A7B60FB68104AA2FB03230A
:101ED800DB08FB607A68FB68B2FBF3F3BB7297F927
:101EE8000A30002B01D00123FB7297F90B30012B2C
:101EF80006D1BB7A3033DBB205481946FFF7BAFF83
:101F0800FB68012BD7D81037BD4680BDCDCCCCCCD3
:101F18000048004080B485B000AF78600023FB73B0
:101F28000023BB730F237B737B68DB78002B38D0CF
:101F3800264BDB68DB4303F4E0631B0AFB73FB7B84
:101F4800C3F10403BB737A7BFB7B42FA03F37B7315
:101F58007B685B781A46BB7B02FA03F3FB737B68EA
:101F68009A787B7B1340DAB2FB7B1343FB73FB7BD2
:101F78001B01FB73164A7B681B781344FA7B83F8B2
:101F88000023134A7B681B785B09DBB218467B6821
:101F98001B7803F01F03012101FA03F342F82030F4
:101FA8000FE00B497B681B785B09DBB218467B683E
:101FB8001B7803F01F0301229A4000F1200341F827
:101FC80023201437BD465DF8047B704700ED00E020
:101FD80000E100E080B485B000AF7860396000238C
:101FE800FB600023FB727B685B68FB60FB6823F087
:101FF800407323F48073FB603B681B791A023B68CB
:102008001B681343FA681343FB607B68FA685A60DD
:102018007B689B68FB60FA68174B1340FB603B6862
:102028001A693B68DB681A433B689B681A433B683C
:102038005B795B001343FA681343FB607B68FA68BB
:102048009A607B68DB6AFB60FB6823F47003FB60C3
:102058003B681B7D013BDAB2FB7A1343FB72FB7AC8
:102068001B05FA681343FB607B68FA68DA62143769
:10207800BD465DF8047B7047FDF7FFC080B485B0AE
:1020880000AF78600023FB600E4B5B68FB60FA686A
:102098000D4B1340FB607B681A687B685B681A43CA
:1020A8007B689B681A437B68DB681343FA681343B1
:1020B800FB60044AFB6853601437BD465DF8047B37
:1020C800704700BF00230140E030FCFF80B483B0BC
:1020D80000AF78600B46FB70FB78002B06D07B685E
:1020E8009B6843F001027B689A6005E07B689B6807
:1020F80023F001027B689A600C37BD465DF8047BCB
:10210800704700BF80B485B000AF786008461146BC
:102118001A460346FB700B46BB7013467B700023C0
:10212800FB600023BB60FB78092B23D97B68DB6845
:10213800FB60FB78A3F10A0213465B0013440722F5
:1021480002FA03F3BB60BB68DB43FA681340FB6029
:102158007978FB78A3F10A0213465B00134401FA6D
:1021680003F3BB60FA68BB681343FB607B68FA68DB
:10217800DA601EE07B681B69FB60FA7813465B0037
:102188001344072202FA03F3BB60BB68DB43FA6817
:102198001340FB607978FA7813465B00134401FA20
:1021A80003F3BB60FA68BB681343FB607B68FA689B
:1021B8001A61BB78062B21D87B685B6BFB60BB7808
:1021C8005A1E13469B0013441F2202FA03F3BB60F6
:1021D800BB68DB43FA681340FB60F978BB785A1E8A
:1021E80013469B00134401FA03F3BB60FA68BB680B
:1021F8001343FB607B68FA685A6347E0BB780C2B93
:1022080021D87B681B6BFB60BB78DA1F13469B00E9
:1022180013441F2202FA03F3BB60BB68DB43FA686E
:102228001340FB60F978BB78DA1F13469B00134410
:1022380001FA03F3BB60FA68BB681343FB607B6871
:10224800FA681A6322E07B68DB6AFB60BB78A3F15B
:102258000D0213469B0013441F2202FA03F3BB60CE
:10226800BB68DB43FA681340FB60F978BB78A3F1DD
:102278000D0213469B00134401FA03F3BB60FA688E
:10228800BB681343FB607B68FA68DA621437BD46A3
:102298005DF8047B704700BF80B483B000AF7860FE
:1022A8007B689B6843F080427B689A600C37BD4628
:1022B8005DF8047B704700BF80B483B000AF7860DE
:1022C8000B46FB70FB78002B06D07B689B6843F4B9
:1022D80080627B689A6005E07B689B6823F4806273
:1022E8007B689A600C37BD465DF8047B704700BF79
:1022F80080B483B000AF78607B68DB6C9BB2184613
:102308000C37BD465DF8047B704700BF80B483B0CE
:1023180000AF78600B46FB70FB78002B06D07B681B
:102328009B6843F480727B689A6005E07B689B68D1
:1023380023F480727B689A600C37BD465DF8047B95
:10234800704700BF80B483B000AF78600B46FB7065
:10235800FB78002B06D07B689B6843F400727B688F
:102368009A6005E07B689B6823F400727B689A603A
:102378000C37BD465DF8047B704700BF80B485B05C
:1023880000AF78600B467B8013467B700023FB60B0
:102398007B88DBB2FB60FB68012202FA03F3FB6077
:1023A8007B78002B06D07B685A68FB681A437B68E9
:1023B8005A6006E07B685A68FB68DB431A407B6812
:1023C8005A601437BD465DF8047B704780B485B009
:1023D80000AF78600B46FB700023FB737B681A68BC
:1023E800FB781340002B02D00123FB7301E000238C
:1023F800FB73FB7B18461437BD465DF8047B7047BA
:1024080080B483B000AF78607B681B6823F001025A
:102418007B681A607B6800221A607B6800225A6019
:102428007B6800229A607B680022DA607B68002261
:102438001A617B6821225A617B68454A934203D11D
:10244800444B3D229A607EE07B68434A934204D124
:10245800404B4FF474629A6075E07B683F4A934240
:1024680004D13C4B4FF474129A606CE07B683C4A90
:10247800934204D1374B4FF074629A6063E07B68F3
:10248800384A934203D1334B374ADA605BE07B68C2
:10249800364A934203D12F4B354ADA6053E07B68C2
:1024A800344A934203D12B4B334ADA604BE07B68C2
:1024B800324A934204D1274B4FF03D52DA6042E052
:1024C8007B682F4A934203D12E4B3D229A603AE013
:1024D8007B682D4A934204D12A4B4FF474629A6068
:1024E80031E07B68294A934204D1264B4FF4741299
:1024F8009A6028E07B68264A934204D1214B4FF02A
:1025080074629A601FE07B68224A934203D11D4B94
:10251800154ADA6017E07B681F4A934203D1194BCA
:10252800134ADA600FE07B681C4A934203D1154BCB
:10253800114ADA6007E07B68194A934203D1114BCC
:102548004FF03D52DA600C37BD465DF8047B7047AA
:102558001060024000600240286002404060024073
:1025680058600240706002403D00002088600240D0
:10257800400F0020A060024000003D20B8600240EB
:102588001064024000640240286402404064024033
:10259800586402407064024088640240A0640240AB
:1025A800B864024080B485B000AF78603960002319
:1025B800FB607B681B68FB60FA68244B1340FB6078
:1025C8003B681A683B68DB681A433B685B691A43D7
:1025D8003B689B691A433B68DB691A433B681B6A83
:1025E8001A433B685B6A1A433B689B6A1A433B6819
:1025F8005B6B1A433B689B6B1343FA681343FB609E
:102608007B68FA681A607B685B69FB60FB6823F08B
:102618000703FB603B68DA6A3B681B6B1343FA6885
:102628001343FB607B68FA685A613B681A697B68E8
:102638005A603B685A687B689A603B689A687B680E
:10264800DA601437BD465DF8047B70473F801CF0A4
:1026580080B483B000AF78600B46FB70FB78002B2A
:1026680006D07B681B6843F001027B681A6005E0AE
:102678007B681B6823F001027B681A600C37BD4633
:102688005DF8047B704700BF80B485B000AFF86088
:10269800B9601346FB71BB6803F08003002B0FD0B1
:1026A800FB79002B06D0FB685B6943F08002FB686E
:1026B8005A6105E0FB685B6923F08002FB685A6198
:1026C800BB68802B14D0FB79002B08D0FB681A68F4
:1026D800BB6803F01E031A43FB681A6008E0FB6836
:1026E8001A68BB6803F01E03DB431A40FB681A60D4
:1026F8001437BD465DF8047B704700BF80B487B0CF
:1027080000AF7860396000237B6100233B610023C0
:10271800FB6000237B6176E07B69012202FA03F308
:102728003B613B681A683B691340FB60FA683B6988
:102738009A4265D17B681A687B695B001946032356
:102748008B40DB431A407B681A607B681A683B68D9
:102758001B7919467B695B0001FA03F31A437B680E
:102768001A603B681B79012B03D03B681B79022B4D
:102778002ED17B689A687B695B00194603238B40DE
:10278800DB431A407B689A607B689A683B685B7990
:1027980019467B695B0001FA03F31A437B689A6068
:1027A8007B685A687B699BB2194601238B40DB43DF
:1027B8001A407B685A607B685B683A689279114670
:1027C8007A6992B201FA02F292B21A437B685A60AD
:1027D8007B68DA687B699BB25B00032101FA03F32B
:1027E800DB431A407B68DA607B68DA683B68DB7930
:1027F80019467B695B0001FA03F31A437B68DA60C8
:102808007B6901337B617B690F2B85D91C37BD46FA
:102818005DF8047B704700BF80B485B000AF786076
:102828000B467B800023FB737B681A697B88134007
:10283800002B02D00123FB7301E00023FB73FB7B19
:1028480018461437BD465DF8047B704780B483B0E2
:1028580000AF78607B685B699BB218460C37BD4651
:102868005DF8047B704700BF80B483B000AF786028
:102878000B467B807B687A881A830C37BD465DF8E7
:10288800047B704780B483B000AF78600B467B80D0
:102898007B687A885A830C37BD465DF8047B70479D
:1028A80080B483B000AF78600B467B807A887B6801
:1028B8005A610C37BD465DF8047B704780B485B01B
:1028C80000AF78600B467B8013467B700023FB606B
:1028D8000023BB607B787A8802F00702920093405D
:1028E800FB607B88DB089BB218467B88DB089BB2C1
:1028F8001A467B68083253F822207B8803F00703C6
:102908009B0019460F238B40DB4302EA03017B68D7
:1029180000F1080243F822107B88DB089BB21A46B4
:102928007B68083253F82220FB681343BB607B881E
:10293800DB089BB21A467B680832B96843F8221054
:102948001437BD465DF8047B704700BF80B489B07A
:1029580000AF78600023BB6100237B610023FB612B
:1029680002233B610023FB600223BB60484B9B684A
:1029780003F00C03BB61BB69042B07D0082B09D0FB
:10298800002B3FD17B68434A1A603FE07B68424A8C
:102998001A603BE03E4B5B6803F480039B0DFB60D1
:1029A8003B4B5B6803F03F03BB60FB68002B0DD01B
:1029B800394ABB68B2FBF3F2354B596847F6C07326
:1029C8000B409B0903FB02F3FB610CE0314ABB6837
:1029D800B2FBF3F22E4B596847F6C0730B409B09C4
:1029E80003FB02F3FB612A4B5B6803F440331B0CC7
:1029F80001335B003B61FA693B69B2FBF3F27B6828
:102A08001A6003E07B68234A1A6000BF204B9B686A
:102A180003F0F003BB61BB691B09BB611F4ABB69BB
:102A280013441B78DBB27B617B681A687B69DA40E8
:102A38007B685A60164B9B6803F4E053BB61BB6923
:102A48009B0ABB61154ABB6913441B78DBB27B61E7
:102A58007B685A687B69DA407B689A600C4B9B6894
:102A680003F46043BB61BB695B0BBB610B4ABB6989
:102A780013441B78DBB27B617B685A687B69DA4058
:102A88007B68DA602437BD465DF8047B704700BF79
:102A9800003802400024F40000127A0010010020DF
:102AA80080B483B000AF78600B46FB70FB78002BD6
:102AB80006D00949084B1A6B7B6813430B6306E081
:102AC8000549054B1A6B7B68DB4313400B630C37D6
:102AD800BD465DF8047B70470038024080B483B07F
:102AE80000AF78600B46FB70FB78002B06D00949D5
:102AF800084B1A6C7B6813430B6406E00549054BC9
:102B08001A6C7B68DB4313400B640C37BD465DF8D9
:102B1800047B70470038024080B483B000AF78600F
:102B28000B46FB70FB78002B06D00949084B5A6C02
:102B38007B6813434B6406E00549054B5A6C7B6878
:102B4800DB4313404B640C37BD465DF8047B70478C
:102B58000038024080B485B000AF78603960002347
:102B6800FB817B681B88FB817B68284A934213D0D2
:102B78007B68274A93420FD07B68B3F1804F0BD014
:102B88007B68244A934207D07B68234A934203D048
:102B98007B68224A934208D1FB8923F07003FB81AA
:102BA8003B685A88FB891343FB817B681C4A934224
:102BB8000CD07B681B4A934208D0FB8923F44073EE
:102BC800FB813B681A89FB891343FB817B68FA897F
:102BD8001A803B685A687B68DA623B681A887B68A7
:102BE8001A857B68094A934203D07B68084A934256
:102BF80004D13B689B7A9AB27B681A867B6801226B
:102C08009A821437BD465DF8047B70470000014086
:102C1800000401400004004000080040000C00408F
:102C2800001000400014004080B483B000AF78600A
:102C38007B684FF0FF325A607B6800221A807B68FD
:102C480000221A817B6800225A807B6800229A72CF
:102C58000C37BD465DF8047B704700BF80B483B075
:102C680000AF78600B46FB70FB78002B08D07B68C0
:102C78001B889BB243F002039AB27B681A8007E074
:102C88007B681B889BB223F002039AB27B681A8088
:102C98000C37BD465DF8047B704700BF80B483B035
:102CA80000AF78600B467B807B88002B08D07B6860
:102CB8001B889BB243F004039AB27B681A8007E032
:102CC8007B681B889BB223F004039AB27B681A8046
:102CD8000C37BD465DF8047B704700BF80B483B0F5
:102CE80000AF78600B46FB70FB78002B08D07B6840
:102CF8001B889BB243F080039AB27B681A8007E076
:102D08007B681B889BB223F080039AB27B681A8089
:102D18000C37BD465DF8047B704700BF80B483B0B4
:102D280000AF78600B46FB70FB78002B08D07B68FF
:102D38001B889BB243F001039AB27B681A8007E0B4
:102D48007B681B889BB223F001039AB27B681A80C8
:102D58000C37BD465DF8047B704700BF80B582B074
:102D680000AF786039603B681B88002B0FD13B6847
:102D780059883B689A883B681B89786800F016F97F
:102D88003B68DB887868194600F03CF836E03B6819
:102D98001B88042B0FD13B6859883B689A883B688D
:102DA8001B89786800F044F93B68DB887868194625
:102DB80000F044F822E03B681B88082B0FD13B68E1
:102DC80059883B689A883B681B89786800F07CF9C9
:102DD8003B68DB887868194600F04EF80EE03B68DF
:102DE80059883B689A883B681B89786800F0B4F971
:102DF8003B68DB887868194600F05AF80837BD4602
:102E080080BD00BF80B483B000AF78600B467B8084
:102E18007B681B8B9BB223F00C039AB27B681A83E6
:102E28007B681B8B9AB27B8813439AB27B681A83A0
:102E38000C37BD465DF8047B704700BF80B483B093
:102E480000AF78600B467B807B681B8B9BB223F4BA
:102E580040639AB27B681A837B681B8B9AB27B8823
:102E68001B029BB213439AB27B681A830C37BD4688
:102E78005DF8047B704700BF80B483B000AF786012
:102E88000B467B807B689B8B9BB223F00C039AB22A
:102E98007B689A837B689B8B9AB27B8813439AB230
:102EA8007B689A830C37BD465DF8047B704700BF8A
:102EB80080B483B000AF78600B467B807B689B8BC7
:102EC8009BB223F440639AB27B689A837B689B8B9E
:102ED8009AB27B881B029BB213439AB27B689A838F
:102EE8000C37BD465DF8047B704700BF80B483B0E3
:102EF80000AF78600B467B8013467B707B78002B95
:102F080008D07B689B899AB27B8813439AB27B6806
:102F18009A8109E07B689B899AB27B88DB439BB2E4
:102F280013409AB27B689A810C37BD465DF8047BE2
:102F3800704700BF80B485B000AF78600B467B80D7
:102F48000023FB737B681B8A9AB27B8813409BB271
:102F5800002B02D00123FB7301E00023FB73FB7BF2
:102F680018461437BD465DF8047B704780B483B0BB
:102F780000AF78600B467B807B88DB439AB27B6826
:102F88001A820C37BD465DF8047B704780B483B065
:102F980000AF78600B467B807B88DB439AB27B6806
:102FA8001A820C37BD465DF8047B704780B487B041
:102FB80000AFF860084611461A4603467B810B4667
:102FC8003B811346FB800023FB820023BB82FB6806
:102FD8001B8C9BB223F001039AB2FB681A84FB682E
:102FE8001B8BFB82FB681B8CBB82FB8A23F0F303E1
:102FF800FB82FB881B019AB23B8913439AB2FB8A76
:103008001343FB82BB8A23F00A03BB827A89BB8AFB
:1030180013439BB243F00103BB82FB68FA8A1A830D
:10302800FB68BA8A1A841C37BD465DF8047B704772
:1030380080B487B000AFF860084611461A460346C8
:103048007B810B463B811346FB800023FB820023D8
:10305800BB8200237B82FB681B8C9BB223F010038E
:103068009AB2FB681A84FB681B8BFB82FB681B8C7B
:10307800BB827B891B017B82FB8A23F440731B057F
:103088001B0DFB82FB881B039AB2FB8A1343FB824E
:103098003B891B029AB2FB8A1343FB82BB8A23F04B
:1030A800A003BB827A8ABB8A13439BB243F0100306
:1030B800BB82FB68FA8A1A83FB68BA8A1A841C37AF
:1030C800BD465DF8047B704780B487B000AFF860F8
:1030D800084611461A4603467B810B463B81134638
:1030E800FB800023FB820023BB8200237B82FB68DA
:1030F8001B8C9BB223F480739AB2FB681A84FB681A
:103108009B8BFB82FB681B8CBB827B891B027B82AF
:10311800FB8A23F0F303FB82FB881B019AB23B89ED
:1031280013439AB2FB8A1343FB82BB8A23F42063BE
:10313800BB827A8ABB8A13439BB243F48073BB82F7
:10314800FB68FA8A9A83FB68BA8A1A841C37BD46D8
:103158005DF8047B704700BF80B487B000AFF860AB
:10316800084611461A4603467B810B463B811346A7
:10317800FB800023FB820023BB8200237B82FB6849
:103188001B8C9BB223F480539AB2FB681A84FB68A9
:103198009B8BFB82FB681B8CBB827B891B037B821E
:1031A800FB8A23F440731B051B0DFB823B891B0222
:1031B8009AB2FB8A1343FB82FB881B039AB2FB8AF1
:1031C8001343FB82BB8A23F400535B045B0CBB8272
:1031D8007A8ABB8A13439BB243F48053BB82FB6851
:1031E800FA8A9A83FB68BA8A1A841C37BD465DF846
:1031F800047B704780B58AB000AF786039600023DF
:103208007B6200233B620023FB610023BB617B6878
:103218001B8A9BB27B627B6A23F440537B623B68C8
:10322800DB881A467B6A13437B627B6A9AB27B68A7
:103238001A827B689B899BB27B627B6A23F4B053BA
:1032480023F00C037B623B689A883B681B89134315
:103258009AB23B685B8913439BB21A467B6A134355
:103268007B627B6A9AB27B689A817B689B8A9BB2F5
:103278007B627B6A23F440737B623B689B891A46B6
:103288007B6A13437B627B6A9AB27B689A8207F1F6
:1032980008031846FFF75AFB7B68314A934203D06C
:1032A8007B68304A934202D17B693B6201E03B690B
:1032B8003B627B689B899BB29BB21BB2002B0CDAEA
:1032C8003A6A13469B0013449A001A443B681B68E9
:1032D8005B00B2FBF3F3FB610BE03A6A13469B0019
:1032E80013449A001A443B681B689B00B2FBF3F333
:1032F800FB61FB691C4AA2FB03235B091B017B6280
:103308007B6A1B09642202FB03F3FA69D31ABB61C7
:103318007B689B899BB29BB21BB2002B0CDABB6902
:10332800DB003233104AA2FB03235B0903F00703D7
:103338007A6A13437B620BE0BB691B0132330A4A8A
:10334800A2FB03235B0903F00F037A6A13437B6232
:103358007B6A9AB27B681A812837BD4680BD00BF58
:1033680000100140001401401F85EB5180B483B068
:1033780000AF78600B46FB70FB78002B08D07B68A9
:103388009B899BB243F400539AB27B689A8107E009
:103398007B689B899BB223F400539AB27B689A811D
:1033A8000C37BD465DF8047B704700BF80B483B01E
:1033B80000AF78600B467B807B88C3F308039AB222
:1033C8007B689A800C37BD465DF8047B704700BF68
:1033D80080B487B000AF78600B467B8013467B7063
:1033E80000233B610023FB600023BB6000237B615B
:1033F8007B687B617B88DBB25B09DBB23B617B88E6
:1034080003F01F03FB60FB68012202FA03F3BB60B1
:103418003B69012B03D17B690C337B6109E03B6974
:10342800022B03D17B6910337B6102E07B69143383
:103438007B617B78002B06D07B697A691168BA6852
:103448000A431A6006E07B697A691168BA68D24350
:103458000A401A601C37BD465DF8047B704700BF00
:1034680080B485B000AF78600B467B800023FB7387
:103478007B681B889AB27B8813409BB2002B02D0D2
:103488000123FB7301E00023FB73FB7B1846143711
:10349800BD465DF8047B704780B487B000AF7860A4
:1034A8000B467B800023FB6000237B610023BB600D
:1034B8000023FB747B88DBB25B09DBB2BB607B88D3
:1034C80003F01F037B617B69012202FA03F37B612E
:1034D800BB68012B07D17B689B899BB21A467B6925
:1034E80013407B6111E0BB68022B07D17B681B8A04
:1034F8009BB21A467B6913407B6106E07B689B8A16
:103508009BB21A467B6913407B617B881B0A9BB27E
:10351800FB60FB68012202FA03F3FB607B681B88EF
:103528009BB21A46FB681340FB607B69002B05D0F1
:10353800FB68002B02D00123FB7401E00023FB741D
:10354800FB7C18461C37BD465DF8047B704700BFFE
:10355800024B13B1024800F005B8704700000000A4
:1035680079350008014600200246034600F016B8E7
:1035780038B5084B084DED1AAC1018BFED1805D03A
:10358800013C55F8043D9847002CF9D1BDE8384076
:1035980000F064B8783600087C3600082DE9F0475A
:1035A800254C2568D5F848410646884692469946EE
:1035B800CCB360681F2818DC431C7EB104EB80057F
:1035C8000121C5F888A0D4F8887101FA00F21743E0
:1035D800022EC4F88871C5F808911ED002306360C5
:1035E80044F820800020BDE8F087144B03B34FF463
:1035F800C870AFF300800446D0B1D5F84831002731
:1036080080E88800C5F8484138460123C4F8887125
:10361800C4F88C71002EE1D0D0E7D4F88C110A439D
:10362800C4F88C21DAE705F5A674C5F84841C0E767
:103638004FF0FF30BDE8F087543600080000000066
:1036480020000000030200004300000020010020C9
:10365800F8B500BFF8BC08BC9E467047F8B500BF77
:08366800F8BC08BC9E46704747
:0836700059350008AD01000806
:0436780089010008BC
:10367C00007A030A00000000000002400100000074
:10368C00010000000101000001000000000C0240DC
:10369C000200000008000000010100000200000010
:1036AC00000C0240080000000800000001010000AE
:1036BC0003000000000402401000000002000000A3
:1036CC000101000004000000000C0240800000001A
:1036DC000800000001010000050000000008024085
:1036EC0000100000040000000101000006000000B2
:1036FC00000802400004000004000000010100006A
:10370C000700000000000240004000000100000023
:10371C00010100000800000000000240000400004D
:10372C00010000000101000009000000000002403F
:10373C000001000001000000010100000A0000006F
:10374C00000802400001000004000000010100001C
:10375C000B000000000C02402000000008000000DC
:10376C00010100000C0000000008024000010000F4
:10377C0004000000010100000A0001000800000024
:10378C0000000000010203040102030406070809FB
:10379C00000000000C04002074040020DC04002055
:1037AC00000000000000000000000000000000000D
:1037BC0000000000000000000000000000000000FD
:1037CC00000000005036000800000000000000005F
:1037DC0000000000000000000000000000000000DD
:1037EC0000000000000000000000000000000000CD
:1037FC0000000000000000000000000000000000BD
:10380C0000000000000000000000000000000000AC
:10381C00000000000000000000000000000000009C
:10382C00000000000000000000000000000000008C
:10383C00000000000000000001000000000000007B
:10384C000E33CDAB34126DE6ECDE05000B00000040
:10385C00000000000000000000000000000000005C
:10386C00000000000000000000000000000000004C
:10387C00000000000000000000000000000000003C
:10388C00000000000000000000000000000000002C
:04000005080001E509
:00000001FF
